:020000040800F2
:1000000000280020351500089D140008A5140008DC
:10001000AD140008B5140008BD140008000000006D
:10002000000000000000000000000000C5140008EF
:10003000D114000800000000DD140008E9140008D5
:100040007D1500087D1500087D1500087D15000848
:100050007D1500087D1500087D1500087D15000838
:100060007D1500087D1500087D1500087D15000828
:100070007D1500087D1500087D1500087D15000818
:100080007D1500087D1500087D1500087D15000808
:100090007D1500087D1500087D1500087D150008F8
:1000A0007D1500087D1500087D1500087D150008E8
:1000B000F51400087D150008000000007D150008FB
:1000C0007D15000800000000000000007D150008FC
:1000D000000000007D1500087D15000800000000EC
:1000E0007D1500087D1500087D1500080000000042
:1000F0000000000000000000000000000000000000
:0C01000000000000000000005FF808F1A3
:10010C0010B5054C237833B9044B13B10448AFF345
:10011C0000800123237010BD2C0000200000000083
:10012C00B42B000808B5034B1BB103490348AFF3CC
:10013C00008008BD0000000030000020B42B000837
:10014C0080B582B000AF00237B6051E1914A7B689F
:10015C0013441B78022B00F0A680022B00F3458180
:10016C00002B02D0012B60D03FE17B68DBB218463C
:10017C0000F0FCF90346002B00F02C81854A7B68CB
:10018C00134401221A707B68022B29D07B68022B46
:10019C0045DC7B68002B03D07B68012B13D03EE041
:1001AC007D4B1B6801337C4A13607C4B01221A6027
:1001BC007B4B01221A70784B1B68042B31DD764B7C
:1001CC0001221A602DE0754B1B680133734A1360D2
:1001DC00724B1B68632B26DD704B01221A6022E0E8
:1001EC006D4B1B68042B10D0042B13DC022B02D09C
:1001FC00032B05D00EE0694B1B686A4A13600AE0BA
:10020C00664B1B68684A136005E0644B1B68674AC1
:10021C00136000E000BF664B01221A7004E000BFBF
:10022C00D8E000BFD6E000BFD4E07B68DBB2184654
:10023C0000F09CF90346002B0BD1564A7B68134403
:10024C0000221A707B68002B2BD1554B00221A70A0
:10025C0028E07B68DBB2184600F0A2F90346002BBD
:10026C0000F0BA804B4A7B68134402221A707B68F8
:10027C00022B12D07B68022B00F3AE807B68002B24
:10028C0003D07B68012B04D0A6E04A4B00221A60F5
:10029C0008E0494B00221A6004E0484B00221A6027
:1002AC0000E000BF98E07B68DBB2184600F05EF916
:1002BC000346002B0CD1374A7B68134400221A707A
:1002CC007B68002B40F08A80354B00221A7085E049
:1002DC007B68022B42D07B68022B00F386807B6804
:1002EC00002B03D07B68012B1FD07EE0314B1B68A9
:1002FC00013B304A13602F4B1B68002B70DC2D4BDD
:10030C0032221A60244B1B680133234A1360234B9F
:10031C0001221A60204B1B68042B02DD1E4B0122AC
:10032C001A601F4B01221A705AE0234B1B68013BC9
:10033C00214A1360204B1B68002B53DC1E4B3222CE
:10034C001A60164B1B680133144A1360134B1B685D
:10035C00632B47DD114B01221A6043E0174B1B68DE
:10036C00013B164A1360154B1B68002B3DDC134BED
:10037C0032221A60084B1B68042B26D0042B33DC6A
:10038C00022B02D0032B1BD02EE0044B1B68054A1A
:10039C0013602AE048000020000000200400002028
:1003AC00580000201000002014000020180000202D
:1003BC00590000204C000020500000205400002068
:1003CC00104B1B68104A13600FE00E4B1B680F4A52
:1003DC0013600AE000BF08E000BF06E000BF04E0C5
:1003EC0000BF02E000BF00E000BF7B6801337B6010
:1003FC007B68022B7FF7AAAE00BF00BF0837BD4653
:10040C0080BD00BF04000020140000201800002054
:10041C0080B483B000AF0023FB7117E0FB79104A66
:10042C000121D154FB790F4A0121D154FB790E4A99
:10043C000121D154FB790D4A0021D154FB790C4A8E
:10044C00002122F81310FB790133FB71FB79022B8D
:10045C00E4D900BF00BF0C37BD4680BC704700BF5D
:10046C005C00002060000020640000206800002078
:10047C006C00002090B583B000AF0023FB7161E0ED
:10048C00FA79FB793349895C334AD154FB79022BD5
:10049C001AD0022B22DC002B02D0012B0AD01DE03B
:1004AC00FC7901212D4801F051FB03461A46294BDA
:1004BC001A5513E0FC790221284801F047FB03464A
:1004CC001A46244B1A5509E0FC790421234801F003
:1004DC003DFB03461A461F4B1A5500BFFB791D4ABC
:1004EC00D25CFB791C49CB5C9A4228D1FA79FB7916
:1004FC001849895C1A4AD154FB79194AD35C002BF0
:10050C0014D1FB79174A32F81330632B09D8FB79D5
:10051C00144A32F81320013291B2124A22F8131005
:10052C000DE0FB79104A0121D15408E0FB790E4A09
:10053C000021D154FB790B4A002122F81310FB79CE
:10054C000133FB71FB79022B9AD900BF00BF0C372A
:10055C00BD4690BD600000206400002000080140F2
:10056C005C0000206C0000206800002080B483B088
:10057C0000AF0346FB71FB79022B01D9002307E086
:10058C00FB79064AD35C002B0CBF01230023DBB2A2
:10059C0018460C37BD4680BC704700BF5C0000207D
:1005AC0080B483B000AF0346FB71FB79022B01D9F9
:1005BC00002307E0FB79064AD35C012B0CBF012317
:1005CC000023DBB218460C37BD4680BC704700BF19
:1005DC006800002080B582B000AF78607B68092B82
:1005EC007FD801A252F823F01D060008330600083C
:1005FC00490600085F060008750600088B0600080F
:10060C00A1060008B7060008CD060008D9060008A8
:10061C0000227E21354801F0B0FA012280213348B6
:10062C0001F0ABFA5DE000220C21304801F0A5FA94
:10063C000122F2212D4801F0A0FA52E00022B6214D
:10064C002A4801F09AFA01224821284801F095FA2B
:10065C0047E000229E21254801F08FFA01226021FB
:10066C00224801F08AFA3CE00022CC211F4801F01C
:10067C0084FA012232211D4801F07FFA31E0002278
:10068C00DA211A4801F079FA01222421174801F0E5
:10069C0074FA26E00022FA21144801F06EFA0122C5
:1006AC000421124801F069FA1BE000220E210F48C8
:1006BC0001F063FA0122F0210C4801F05EFA10E01F
:1006CC000022FE21094801F058FA0AE00022DE213E
:1006DC00064801F052FA01222021044801F04DFA9B
:1006EC0000BF00BF0837BD4680BD00BF000C0140F5
:1006FC0080B582B000AF78607B68092B00F29480E3
:10070C0001A252F823F000BF3D070008570700086C
:10071C00710700088B070008A5070008BF07000831
:10072C00D9070008F30700080D0800081B0800088B
:10073C0000224FF47C513E4801F01FFA01224FF485
:10074C0080413B4801F019FA6EE000224FF4C06181
:10075C00374801F012FA01224FF4F241344801F00B
:10076C000CFA61E000224FF4B641314801F005FA71
:10077C0001224FF410512E4801F0FFF954E00022F1
:10078C004FF49E412A4801F0F8F901224FF44051F0
:10079C00274801F0F2F947E000224FF4CC412448FD
:1007AC0001F0EBF901224FF4C851214801F0E5F9B1
:1007BC003AE000224FF4DA411D4801F0DEF9012243
:1007CC004FF490511A4801F0D8F92DE000224FF463
:1007DC00FA41174801F0D1F901224FF40071144885
:1007EC0001F0CBF920E000224FF4E061104801F059
:1007FC00C4F901224FF4F0410D4801F0BEF913E0A9
:10080C0000224FF4FE410A4801F0B7F90CE0002237
:10081C004FF4DE41064801F0B0F901224FF480514B
:10082C00034801F0AAF900BF00BF0837BD4680BDE0
:10083C00000C014080B400AF0B4B1B680B4A1360DB
:10084C000B4B1B680B4A13600B4B01221A600B4BB2
:10085C0003221A600A4B01221A600A4B00221A600A
:10086C0000BFBD4680BC70471000002078000020FF
:10087C00180000207C000020080000200C00002044
:10088C001C0000207400002080B500AF144B1B68C6
:10089C005B42134A1360134B1B680133114A1360FC
:1008AC000F4B1B68012B0CD100224FF4A0510E48AA
:1008BC0001F063F901224FF420510B4801F05DF96E
:1008CC000BE001224FF4A051074801F056F9002229
:1008DC004FF42051044801F050F900BF80BD00BF17
:1008EC001C000020740000200008014080B500AFFF
:1008FC00FFF7CAFFAA4B1B68012B0CDDA84B00228B
:10090C001A60A84B1B68013BA64A1360A64B1B68D8
:10091C00013BA54A1360A54B1B68032B3DD0032B51
:10092C0000F3A780012B02D0022B6CD0A1E0A04BCE
:10093C001B68012B0BD19B4B1B689E4A82FB03123D
:10094C009210DB17D31A1846FFF744FE0FE0954BB5
:10095C001A68984B83FB02139910D317C91A0B46CC
:10096C009B000B445B00D11A0846FFF733FE0022B4
:10097C001021914801F001F9012260218E4801F00B
:10098C00FCF8884B1B68002B79DC884B03221A601F
:10099C008A4B1B68834A136071E0854B1B68012BE3
:1009AC000BD1804B1B68834A82FB03129210DB171E
:1009BC00D31A1846FFF70EFE0FE07A4B1A687D4BE0
:1009CC0083FB02139910D317C91A0B469B000B44D7
:1009DC005B00D11A0846FFF7FDFD00224021764846
:1009EC0001F0CBF801223021734801F0C6F86D4BB1
:1009FC001B68002B45DC6D4B02221A60704B1B6888
:100A0C00684A13603DE06A4B1B68012B0BD1654BA8
:100A1C001B68684A82FB03129210DB17D31A184624
:100A2C00FFF7D8FD0FE05F4B1A68624B83FB021394
:100A3C009910D317C91A0B469B000B445B00D11AB3
:100A4C000846FFF7C7FD002220215B4801F095F80E
:100A5C0001225021584801F090F8524B1B68002B92
:100A6C0011DC524B01221A60564B1B684D4A136025
:100A7C0009E001227021504801F07FF804E000BF2A
:100A8C0002E000BF00E000BF4F4B1B68032B3FD0C0
:100A9C00032B00F3C380012B02D0022B70D0BDE0DE
:100AAC00434B1B68012B0BD13F4B1B68414A82FB0C
:100ABC0003129210DB17D31A1846FFF719FE0FE03A
:100ACC00394B1A683B4B83FB02139910D317C91A85
:100ADC000B469B000B445B00D11A0846FFF708FE3F
:100AEC0000228021344801F048F801224FF4407173
:100AFC00314801F042F82C4B1B68002B00F3958019
:100B0C00314B03221A602D4B1B68274A13608CE073
:100B1C00274B1B68012B0BD1234B1B68254A82FBEF
:100B2C0003129210DB17D31A1846FFF7E1FD0FE002
:100B3C001D4B1A681F4B83FB02139910D317C91A4C
:100B4C000B469B000B445B00D11A0846FFF7D0FD07
:100B5C0000224FF40071184801F00FF801224FF4F5
:100B6C00C071154801F009F80F4B1B68002B5EDCB7
:100B7C00154B02221A60124B1B680B4A136056E08D
:100B8C000B4B1B68012B21D1074B1B68094A82FBBD
:100B9C0003129210DB17D31A1846FFF7A9FD25E0B4
:100BAC0074000020780000207C0000200800002049
:100BBC001C000020676666660008014018000020D3
:100BCC0014000020100000200C0000201A4B1A68A2
:100BDC001A4B83FB02139910D317C91A0B469B00AF
:100BEC000B445B00D11A0846FFF782FD00224FF43C
:100BFC008071134800F0C1FF01224FF4207110489E
:100C0C0000F0BBFF0C4B1B68002B12DC0D4B0122C0
:100C1C001A600D4B1B68084A13600AE001224FF45E
:100C2C006071074800F0A9FF04E000BF02E000BFBC
:100C3C0000E000BF00BF80BD7C00002067666666D8
:100C4C00000801400C0000201000002080B500AF0F
:100C5C000821024800F0A9FF00BF80BD0008014038
:100C6C0080B500AF01224FF45871274800F085FF82
:100C7C001021254800F099FF8021234800F095FFB2
:100C8C00FFF702FE214B1B68012B0BD1204B1B687D
:100C9C00204A82FB03129210DB17D31A1846FFF777
:100CAC0099FC0FE01A4B1A681A4B83FB021399102C
:100CBC00D317C91A0B469B000B445B00D11A08468C
:100CCC00FFF788FC114B1B68012B0BD1124B1B68D7
:100CDC00104A82FB03129210DB17D31A1846FFF747
:100CEC0007FD0FE00C4B1A680A4B83FB021399109B
:100CFC00D317C91A0B469B000B445B00D11A08464C
:100D0C00FFF7F6FC00BF80BD000801401C0000206E
:100D1C0000000020676666660400002080B500AF06
:100D2C0001224FF43471284800F027FF2021264877
:100D3C0000F03BFF4FF48071234800F036FFFFF7C3
:100D4C00A3FD224B1B68012B0BD1214B1B68214AA5
:100D5C0082FB03129210DB17D31A1846FFF73AFCEA
:100D6C000FE01B4B1A681B4B83FB02139910D31714
:100D7C00C91A0B469B000B445B00D11A0846FFF7BF
:100D8C0029FC124B1B68012B0BD1134B1B68114A0E
:100D9C0082FB03129210DB17D31A1846FFF7A8FC3C
:100DAC000FE00D4B1A680B4B83FB02139910D317F2
:100DBC00C91A0B469B000B445B00D11A0846FFF77F
:100DCC0097FC00BF80BD00BF000801401C00002044
:100DDC0000000020676666660400002080B500AF46
:100DEC0001224FF4D871284800F0C7FE4021264854
:100DFC0000F0DBFE4FF40071234800F0D6FEFFF745
:100E0C0043FD224B1B68012B0BD1214B1B68214A44
:100E1C0082FB03129210DB17D31A1846FFF7DAFB8A
:100E2C000FE01B4B1A681B4B83FB02139910D31753
:100E3C00C91A0B469B000B445B00D11A0846FFF7FE
:100E4C00C9FB124B1B68012B0BD1134B1B68114AAE
:100E5C0082FB03129210DB17D31A1846FFF748FCDB
:100E6C000FE00D4B1A680B4B83FB02139910D31731
:100E7C00C91A0B469B000B445B00D11A0846FFF7BE
:100E8C0037FC00BF80BD00BF000801401C000020E3
:100E9C0000000020676666660400002080B500AF85
:100EAC0000F068FB00F07AF800F000F900F0B2F8FE
:100EBC002E4801F0C1FAFFF7BDFCFFF7A9FA642236
:100ECC0064212B4800F05AF900220021294800F037
:100EDC0055F900220021284800F050F93222002157
:100EEC00264800F04BF9264B1B78012B3BD1254BA8
:100EFC001B78013BDBB2184600F038FA204B00227D
:100F0C001A70214B1B68013B032B2CD801A252F801
:100F1C0023F000BF310F00084F0F00085B0F0008D3
:100F2C00670F0008194B1B78012B04D1FFF782FCCB
:100F3C00164B00221A7032220021104800F01EF9C4
:100F4C0011E032220021124800F018F90BE0322295
:100F5C000021104800F012F905E0322200210E4861
:100F6C0000F00CF900BF00F0BFF9BCE780000020D6
:100F7C00590C0008810400084D010008F90800080C
:100F8C005800002090010020000000205900002093
:100F9C006D0C0008290D0008E90D000880B590B013
:100FAC0000AF07F1180328220021184601F0D0FDEC
:100FBC003B1D00221A605A609A60DA601A610223A3
:100FCC00BB610123BB621023FB6200237B6307F12F
:100FDC001803184600F002FE0346002B01D000F067
:100FEC00C7F80F237B600023BB600023FB6000234A
:100FFC003B6100237B613B1D0021184601F070F81A
:10100C000346002B01D000F0B3F800BF4037BD46BB
:10101C0080BD000080B586B000AF07F10803002248
:10102C001A605A609A60DA603B4600221A605A6075
:10103C001D4B4FF080421A601B4B41F63F725A60B9
:10104C00194B00229A60184B0922DA60164B0022C9
:10105C001A61154B00229A61134801F09DF9034661
:10106C00002B01D000F084F84FF48053BB6007F1E3
:10107C00080319460C4801F01BFB0346002B01D05A
:10108C0000F076F800233B6000237B603B4619465A
:10109C00054801F0F3FC0346002B01D000F068F882
:1010AC0000BF1837BD4680BD8000002080B586B0DB
:1010BC0000AF07F1080300221A605A609A60DA60E8
:1010CC00284B9B69274A43F004039361254B9B698A
:1010DC0003F004037B607B68224B9B69214A43F03D
:1010EC00080393611F4B9B6903F008033B603B684B
:1010FC00012243F6F8711C4800F03FFD012247F62F
:10110C00FE711A4800F039FD0723BB600023FB6019
:10111C0001233B6107F108031946134800F09AFBC1
:10112C0043F6F873BB600123FB6000233B61022391
:10113C007B6107F1080319460B4800F08BFB47F65F
:10114C00FE73BB600123FB6000233B6102237B61C8
:10115C0007F108031946054800F07CFB00BF18375F
:10116C00BD4680BD0010024000080140000C01404B
:10117C0080B400AF72B600BF00BFFDE780B485B08D
:10118C0000AFF860B9607A60254B1B78092B42D808
:10119C00234B1B781946234A0B469B000B449B00A0
:1011AC001344FA681A601E4B1B7819461D4A0B46ED
:1011BC009B000B449B0013440433BA681A60184B11
:1011CC001B781946174A0B469B000B449B00134493
:1011DC0008337A681A60124B1B781946114A0B4671
:1011EC009B000B449B0013440C3300221A700C4BD5
:1011FC001A780B4B1B78194610460A4A0B469B0073
:10120C000B449B00134410331860054B1B780133BF
:10121C00DAB2034B1A7000BF1437BD4680BC70475E
:10122C0090010020C800002080B483B000AF0023E0
:10123C007B6048E02A497A6813469B0013449B0064
:10124C000B4404331B68002B13D025497A681346D2
:10125C009B0013449B000B4404331B68591E20480D
:10126C007A6813469B0013449B00034404331960B3
:10127C0026E01B497A6813469B0013449B000B44E1
:10128C000833196816487A6813469B0013449B0070
:10129C0003440433196012497A6813469B001344C3
:1012AC009B000B440C331B780133D8B20C497A6881
:1012BC0013469B0013449B000B440C3302461A70DC
:1012CC007B6801337B60074B1B781A467B68934223
:1012DC00B0DB00BF00BF0C37BD4680BC704700BF01
:1012EC00C80000209001002080B582B000AF002320
:1012FC007B602BE01B497A6813469B0013449B00D0
:10130C000B440C331B78002B1DD016497A681346FE
:10131C009B0013449B000B440C331B78013BD8B24D
:10132C0010497A6813469B0013449B000B440C3302
:10133C0002461A700B497A6813469B0013449B00B3
:10134C000B441B6898477B6801337B60064B1B780A
:10135C001A467B689342CDDB00BF00BF0837BD4601
:10136C0080BD00BFC80000209001002080B483B075
:10137C0000AF0346FB71FA79184913469B001344DE
:10138C009B000B4400221A60FA79144913469B0007
:10139C0013449B000B44043300221A60FA790F4962
:1013AC0013469B0013449B000B44083300221A6025
:1013BC00FA790A4913469B0013449B000B440C33E7
:1013CC0000221A70064B1B78013BDAB2044B1A70E0
:1013DC0000BF0C37BD4680BC704700BFC800002062
:1013EC009001002080B485B000AF154B9B69144A66
:1013FC0043F001039361124B9B6903F00103BB6043
:10140C00BB680F4BDB690E4A43F08053D3610C4B26
:10141C00DB6903F080537B607B680A4B5B68FB6085
:10142C00FB6823F0E063FB60FB6843F08063FB60C8
:10143C00044AFB68536000BF1437BD4680BC70473C
:10144C00001002400000014080B584B000AF78600D
:10145C007B681B68B3F1804F13D10C4BDB690B4AD3
:10146C0043F00103D361094BDB6903F00103FB601B
:10147C00FB68002200211C2000F0B5F91C2000F0B4
:10148C00CEF900BF1037BD4680BD00BF0010024032
:10149C0080B400AF00BFFDE780B400AF00BFFDE734
:1014AC0080B400AF00BFFDE780B400AF00BFFDE724
:1014BC0080B400AF00BFFDE780B400AF00BFBD46F5
:1014CC0080BC704780B400AF00BFBD4680BC704785
:1014DC0080B400AF00BFBD4680BC704780B500AF84
:1014EC0000F08EF800BF80BD80B500AF024800F060
:1014FC00EFFF00BF80BD00BF8000002080B400AFB4
:10150C0000BFBD4680BC704780B582B000AF78602C
:10151C007B681B68B3F1804F01D1FFF785FE00BFDC
:10152C000837BD4680BD0000FFF7E8FF0B480C49AB
:10153C000C4A002302E0D458C4500433C4188C4223
:10154C00F9D3094A094C002301E013600432A2428A
:10155C00FBD301F005FBFFF7A1FC70470000002056
:10156C002C000020F82B00082C00002098010020F3
:10157C00FEE7000080B500AF084B1B68074A43F03C
:10158C0010031360032000F023F90F2000F008F87B
:10159C00FFF728FF0023184680BD00BF0020024043
:1015AC0080B582B000AF7860124B1A68124B1B7872
:1015BC0019464FF47A73B3FBF1F3B2FBF3F318460D
:1015CC0000F03BF90346002B01D001230EE07B68B1
:1015DC000F2B0AD8002279684FF0FF3000F003F986
:1015EC00064A7B681360002300E001231846083785
:1015FC00BD4680BD200000202800002024000020D3
:10160C0080B400AF054B1B781A46054B1B6813447E
:10161C00034A136000BFBD4680BC70472800002001
:10162C009401002080B400AF024B1B681846BD46E5
:10163C0080BC70479401002080B485B000AF786006
:10164C007B6803F00703FB600C4BDB68BB60BA687C
:10165C004FF6FF031340BB60FB681A02BB681343D1
:10166C0043F0BF6343F40033BB60044ABB68D360F0
:10167C0000BF1437BD4680BC704700BF00ED00E0D2
:10168C0080B400AF044BDB681B0A03F00703184659
:10169C00BD4680BC704700BF00ED00E080B483B055
:1016AC0000AF0346FB7197F90730002B0BDBFB797E
:1016BC0003F01F02064997F907305B09012000FA75
:1016CC0002F241F8232000BF0C37BD4680BC7047A6
:1016DC0000E100E080B483B000AF03463960FB71D9
:1016EC0097F90730002B0ADB3B68DAB20C4997F903
:1016FC0007301201D2B20B4483F800230AE03B6896
:10170C00DAB20849FB7903F00F03043B1201D2B2A1
:10171C000B441A7600BF0C37BD4680BC704700BF27
:10172C0000E100E000ED00E080B489B000AFF860AB
:10173C00B9607A60FB6803F00703FB61FB69C3F1D6
:10174C000703042B28BF0423BB61FB690433062B5E
:10175C0002D9FB69033B00E000237B614FF0FF32B1
:10176C00BB6902FA03F3DA43BB681A407B699A40FF
:10177C004FF0FF317B6901FA03F3D9437B680B40CF
:10178C00134318462437BD4680BC704780B582B0E1
:10179C0000AF78607B68013BB3F1807F01D30123FC
:1017AC000FE00A4A7B68013B53600F214FF0FF307A
:1017BC00FFF790FF054B00229A60044B07221A603A
:1017CC00002318460837BD4680BD00BF10E000E07E
:1017DC0080B582B000AF78607868FFF72DFF00BF4E
:1017EC000837BD4680BD80B586B000AF0346B960F2
:1017FC007A60FB7300237B61FFF742FF78617A68A4
:10180C00B9687869FFF790FF024697F90F301146D7
:10181C001846FFF75FFF00BF1837BD4680BD80B587
:10182C0082B000AF0346FB7197F907301846FFF7FB
:10183C0035FF00BF0837BD4680BD80B582B000AF14
:10184C0078607868FFF7A2FF034618460837BD4654
:10185C0080BD000080B48BB000AF7860396000238D
:10186C007B6200233B6261E101227B6A02FA03F393
:10187C00FB613B681B68FA691340BB61BA69FB6981
:10188C009A4240F050813B685B68974A93425ED025
:10189C00954A934275D8954A934258D0934A9342AD
:1018AC006FD8934A934252D0914A934269D8914A45
:1018BC0093424CD08F4A934263D88F4A934246D07E
:1018CC008D4A93425DD8122B2AD8122B59D801A2DB
:1018DC0052F823F05B190008351900084719000865
:1018EC00891900088F1900088F1900088F19000832
:1018FC008F1900088F1900088F1900088F1900081C
:10190C008F1900088F1900088F1900088F1900080B
:10191C008F1900088F1900083D190008511900088B
:10192C00764A934213D02CE03B68DB683B6229E09B
:10193C003B68DB6804333B6224E03B68DB680833BC
:10194C003B621FE03B68DB680C333B621AE03B6890
:10195C009B68002B02D104233B6213E03B689B681D
:10196C00012B05D108233B627B68FA691A6109E0F7
:10197C0008233B627B68FA695A6103E000233B62EF
:10198C0000E000BFBB69FF2B01D87B6801E07B68DE
:10199C0004337B61BB69FF2B02D87B6A9B0002E09E
:1019AC007B6A083B9B003B617B691A680F213B6992
:1019BC0001FA03F3DB431A40396A3B6901FA03F37A
:1019CC001A437B691A603B685B6803F08053002BF9
:1019DC0000F0A9804A4B9B69494A43F0010393618B
:1019EC00474B9B6903F00103BB60BB68454A7B6AAC
:1019FC009B08023352F82330FB607B6A03F003032D
:101A0C009B000F2202FA03F3DB43FA681340FB60DE
:101A1C007B683D4A93420DD07B683C4A934207D089
:101A2C007B683B4A934201D1022304E0032302E08A
:101A3C00012300E000237A6A02F003029200934033
:101A4C00FA681343FB602F497B6A9B080233FA68E0
:101A5C0041F823203B685B6803F48013002B06D00D
:101A6C002C4B9A682B49BB6913438B6006E0294BBE
:101A7C009A68BB69DB43274913408B603B685B6802
:101A8C0003F40013002B06D0224BDA682149BB6902
:101A9C001343CB6006E01F4BDA68BB69DB431D497F
:101AAC001340CB603B685B6803F40033002B06D01B
:101ABC00184B5A681749BB6913434B6006E0154B2A
:101ACC005A68BB69DB43134913404B603B685B6846
:101ADC0003F48033002B1FD00E4B1A680D49BB69E1
:101AEC0013430B601FE000BF0000321000003110E8
:101AFC000000221000002110000012100000111034
:101B0C00001002400000014000080140000C0140A0
:101B1C0000100140000401400B4B1A68BB69DB4309
:101B2C00094913400B607B6A01337B623B681A687E
:101B3C007B6A22FA03F3002B7FF496AE00BF00BF42
:101B4C002C37BD4680BC70470004014080B485B082
:101B5C0000AF78600B467B807B689A687B8813406B
:101B6C00002B02D00123FB7301E00023FB73FB7BF2
:101B7C0018461437BD4680BC704780B483B000AFA4
:101B8C0078600B467B8013467B707B78002B03D0F0
:101B9C007A887B681A6103E07B881A047B681A6177
:101BAC0000BF0C37BD4680BC704780B485B000AF19
:101BBC0078600B467B807B68DB68FB607A88FB680F
:101BCC0013401A04FB68D9437B880B401A437B688B
:101BDC001A6100BF1437BD4680BC704780B586B013
:101BEC0000AF78607B68002B01D1012372E27B6827
:101BFC001B6803F00103002B00F08780924B5B689D
:101C0C0003F00C03042B0CD08F4B5B6803F00C031C
:101C1C00082B12D18C4B5B6803F48033B3F5803FF7
:101C2C000BD1894B1B6803F40033002B6CD07B6801
:101C3C005B68002B68D101234CE27B685B68B3F5D1
:101C4C00803F06D1804B1B687F4A43F4803313607E
:101C5C002EE07B685B68002B0CD17B4B1B687A4AAF
:101C6C0023F480331360784B1B68774A23F480236A
:101C7C0013601DE07B685B68B3F5A02F0CD1724B31
:101C8C001B68714A43F4802313606F4B1B686E4AC8
:101C9C0043F4803313600BE06B4B1B686A4A23F4EC
:101CAC0080331360684B1B68674A23F480231360EE
:101CBC007B685B68002B13D0FFF7B4FC386108E03D
:101CCC00FFF7B0FC02463B69D31A642B01D90323FE
:101CDC0000E25D4B1B6803F40033002BF0D014E0E2
:101CEC00FFF7A0FC386108E0FFF79CFC02463B695B
:101CFC00D31A642B01D90323ECE1534B1B6803F477
:101D0C000033002BF0D100E000BF7B681B6803F0B0
:101D1C000203002B63D04C4B5B6803F00C03002BCD
:101D2C000BD0494B5B6803F00C03082B1CD1464BC2
:101D3C005B6803F48033002B16D1434B1B6803F014
:101D4C000203002B05D07B681B69012B01D00123FA
:101D5C00C0E13D4B1B6823F0F8027B685B69DB003C
:101D6C00394913430B603AE07B681B69002B20D088
:101D7C00364B01221A60FFF755FC386108E0FFF77B
:101D8C0051FC02463B69D31A022B01D90323A1E172
:101D9C002D4B1B6803F00203002BF0D02A4B1B6861
:101DAC0023F0F8027B685B69DB00274913430B6067
:101DBC0015E0264B00221A60FFF734FC386108E06E
:101DCC00FFF730FC02463B69D31A022B01D90323DF
:101DDC0080E11D4B1B6803F00203002BF0D17B68E4
:101DEC001B6803F00803002B3AD07B689B69002B1F
:101DFC0019D0174B01221A60FFF714FC386108E068
:101E0C00FFF710FC02463B69D31A022B01D90323BE
:101E1C0060E10D4B5B6A03F00203002BF0D0012054
:101E2C0000F09CFA1CE00A4B00221A60FFF7FAFB48
:101E3C0038610FE0FFF7F6FB02463B69D31A022B21
:101E4C0008D9032346E100BF0010024000004242C3
:101E5C0080044242924B5B6A03F00203002BE9D1EF
:101E6C007B681B6803F00403002B00F0A6800023A2
:101E7C00FB758B4BDB6903F08053002B0DD1884B2A
:101E8C00DB69874A43F08053D361854BDB6903F0F0
:101E9C008053BB60BB680123FB75824B1B6803F44A
:101EAC008073002B18D17F4B1B687E4A43F48073E0
:101EBC001360FFF7B7FB386108E0FFF7B3FB02468E
:101ECC003B69D31A642B01D9032303E1754B1B68BF
:101EDC0003F48073002BF0D07B68DB68012B06D1F8
:101EEC006F4B1B6A6E4A43F0010313622DE07B6853
:101EFC00DB68002B0CD16A4B1B6A694A23F0010387
:101F0C001362674B1B6A664A23F0040313621CE0DE
:101F1C007B68DB68052B0CD1614B1B6A604A43F074
:101F2C00040313625E4B1B6A5D4A43F001031362A8
:101F3C000BE05B4B1B6A5A4A23F001031362584BAC
:101F4C001B6A574A23F0040313627B68DB68002B7F
:101F5C0015D0FFF767FB38610AE0FFF763FB024619
:101F6C003B69D31A41F28832934201D90323B1E081
:101F7C004B4B1B6A03F00203002BEED014E0FFF76F
:101F8C0051FB38610AE0FFF74DFB02463B69D31A5F
:101F9C0041F28832934201D903239BE0404B1B6AE8
:101FAC0003F00203002BEED1FB7D012B05D13C4B42
:101FBC00DB693B4A23F08053D3617B68DB69002BE0
:101FCC0000F08780364B5B6803F00C03082B61D064
:101FDC007B68DB69022B46D1334B00221A60FFF77A
:101FEC0021FB386108E0FFF71DFB02463B69D31A61
:101FFC00022B01D903236DE0294B1B6803F00073FE
:10200C00002BF0D17B681B6AB3F5803F08D1244BC1
:10201C005B6823F400327B689B68214913434B6057
:10202C001F4B5B6823F474127B68196A7B685B6ACC
:10203C000B431B4913434B601B4B01221A60FFF7E8
:10204C00F1FA386108E0FFF7EDFA02463B69D31A62
:10205C00022B01D903233DE0114B1B6803F00073E5
:10206C00002BF0D035E0104B00221A60FFF7DAFAA3
:10207C00386108E0FFF7D6FA02463B69D31A022B07
:10208C0001D9032326E0064B1B6803F00073002BD9
:10209C00F0D11EE07B68DB69012B07D1012319E02D
:1020AC000010024000700040600042420B4B5B6825
:1020BC00FB60FB6803F480327B681B6A9A4206D192
:1020CC00FB6803F470127B685B6A9A4201D00123AF
:1020DC0000E0002318461837BD4680BD00100240B2
:1020EC0080B584B000AF786039607B68002B01D17B
:1020FC000123D0E06A4B1B6803F007033A689A424D
:10210C0010D9674B1B6823F0070265493B681343E2
:10211C000B60634B1B6803F007033A689A4201D0CB
:10212C000123B8E07B681B6803F00203002B20D06E
:10213C007B681B6803F00403002B05D0594B5B68CC
:10214C00584A43F4E06353607B681B6803F0080350
:10215C00002B05D0534B5B68524A43F460535360D9
:10216C00504B5B6823F0F0027B689B684D4913432E
:10217C004B607B681B6803F00103002B40D07B682D
:10218C005B68012B07D1474B1B6803F40033002B12
:10219C0015D101237FE07B685B68022B07D1414B93
:1021AC001B6803F00073002B09D1012373E03D4B36
:1021BC001B6803F00203002B01D101236BE0394BA8
:1021CC005B6823F003027B685B68364913434B6002
:1021DC00FFF728FAF8600AE0FFF724FA0246FB68DA
:1021EC00D31A41F28832934201D9032353E02D4B89
:1021FC005B6803F00C027B685B689B009A42EBD136
:10220C00274B1B6803F007033A689A4210D2244B01
:10221C001B6823F0070222493B6813430B60204BD9
:10222C001B6803F007033A689A4201D0012332E09D
:10223C007B681B6803F00403002B08D0194B5B6808
:10224C0023F4E0627B68DB68164913434B607B68C0
:10225C001B6803F00803002B09D0124B5B6823F4B6
:10226C0060527B681B69DB000E4913434B6000F026
:10227C0021F802460B4B5B681B0903F00F030A495C
:10228C00CB5C22FA03F3094A1360094B1B6818460E
:10229C00FFF786F9002318461037BD4680BD00BFF6
:1022AC000020024000100240CC2B0008200000202F
:1022BC002400002080B487B000AF0023FB60002313
:1022CC00BB6000237B6100237B6000233B611E4BC2
:1022DC005B68FB60FB6803F00C03042B02D0082B3B
:1022EC0003D027E0194B3B6127E0FB689B0C03F004
:1022FC000F03174AD35C7B60FB6803F48033002B1D
:10230C0010D0114B5B685B0C03F00103114AD35CDA
:10231C00BB607B680D4A03FB02F2BB68B2FBF3F3B4
:10232C007B6104E07B680C4A02FB03F37B617B69F5
:10233C003B6102E0054B3B6100BF3B6918461C3713
:10234C00BD4680BC704700BF0010024000127A00EE
:10235C00DC2B0008EC2B000800093D0080B485B094
:10236C0000AF78600A4B1B680A4AA2FB03235B0A86
:10237C007A6802FB03F3FB6000BFFB685A1EFA602D
:10238C00002BF9D100BF00BF1437BD4680BC70478D
:10239C0020000020D34D621080B582B000AF786071
:1023AC007B68002B01D1012341E07B6893F83D3021
:1023BC00DBB2002B06D17B68002283F83C207868C6
:1023CC00FFF742F87B68022283F83D207B681A688D
:1023DC007B6804331946104600F056FA7B680122DC
:1023EC0083F846207B68012283F83E207B6801221B
:1023FC0083F83F207B68012283F840207B68012210
:10240C0083F841207B68012283F842207B680122FB
:10241C0083F843207B68012283F844207B680122E7
:10242C0083F845207B68012283F83D200023184661
:10243C000837BD4680BD000080B485B000AF786021
:10244C007B6893F83D30DBB2012B01D0012335E0E2
:10245C007B68022283F83D207B681B68DA687B6806
:10246C001B6842F00102DA607B681B68164A9342D3
:10247C0009D07B681B68B3F1804F04D07B681B6864
:10248C00124A934211D17B681B689B6803F00703C7
:10249C00FB60FB68062B10D07B681B681A687B6896
:1024AC001B6842F001021A6007E07B681B681A681F
:1024BC007B681B6842F001021A600023184614372F
:1024CC00BD4680BC704700BF002C0140000400409A
:1024DC0080B584B000AF78607B681B68DB68FB60FC
:1024EC007B681B681B69BB60BB6803F00203002B95
:1024FC0020D0FB6803F00203002B1BD07B681B6809
:10250C006FF002021A617B6801221A777B681B68E4
:10251C009B6903F00303002B03D0786800F098F953
:10252C0005E0786800F08BF9786800F09AF97B6820
:10253C0000221A77BB6803F00403002B20D0FB6841
:10254C0003F00403002B1BD07B681B686FF00402A4
:10255C001A617B6802221A777B681B689B6903F4FB
:10256C004073002B03D0786800F072F905E07868AE
:10257C0000F065F9786800F074F97B6800221A772E
:10258C00BB6803F00803002B20D0FB6803F00803A2
:10259C00002B1BD07B681B686FF008021A617B68EC
:1025AC0004221A777B681B68DB6903F00303002B9A
:1025BC0003D0786800F04CF905E0786800F03FF93A
:1025CC00786800F04EF97B6800221A77BB6803F03C
:1025DC001003002B20D0FB6803F01003002B1BD042
:1025EC007B681B686FF010021A617B6808221A77EF
:1025FC007B681B68DB6903F44073002B03D078689D
:10260C0000F026F905E0786800F019F9786800F018
:10261C0028F97B6800221A77BB6803F00103002BB2
:10262C000CD0FB6803F00103002B07D07B681B6800
:10263C006FF001021A617868FEF766FFBB6803F061
:10264C008003002B0CD0FB6803F08003002B07D019
:10265C007B681B686FF080021A61786800F06FFA73
:10266C00BB6803F04003002B0CD0FB6803F0400365
:10267C00002B07D07B681B686FF040021A617868EA
:10268C0000F0F8F8BB6803F02003002B0CD0FB68BB
:10269C0003F02003002B07D07B681B686FF020022F
:1026AC001A61786800F042FA00BF1037BD4680BD51
:1026BC0080B584B000AF786039600023FB737B6811
:1026CC0093F83C30012B01D10223B4E07B6801224A
:1026DC0083F83C207B68022283F83D207B681B68D2
:1026EC009B68BB60BB6823F07703BB60BB6823F4BB
:1026FC007F43BB607B681B68BA689A603B681B6849
:10270C00B3F5005F3ED0B3F5005F00F28780B3F500
:10271C00805F00F08680B3F5805F7FD8702B1AD075
:10272C00702B7BD8602B50D0602B77D8502B3CD0A3
:10273C00502B73D8402B58D0402B6FD8302B64D0F3
:10274C00302B6BD8202B60D0202B67D8002B5CD083
:10275C00102B5AD062E07B6818683B6899683B681C
:10276C005A683B68DB6800F06AF97B681B689B68F9
:10277C00BB60BB6843F07703BB607B681B68BA68BF
:10278C009A604FE07B6818683B6899683B685A68A8
:10279C003B68DB6800F053F97B681B689A687B68C0
:1027AC001B6842F480429A603CE07B6818683B6886
:1027BC0059683B68DB681A4600F0CAF87B681B68EE
:1027CC005021184600F021F92CE07B6818683B6812
:1027DC0059683B68DB681A4600F0E8F87B681B68B0
:1027EC006021184600F011F91CE07B6818683B6802
:1027FC0059683B68DB681A4600F0AAF87B681B68CE
:10280C004021184600F001F90CE07B681A683B681F
:10281C001B681946104600F0F8F803E00123FB731F
:10282C0000E000BF7B68012283F83D207B6800221A
:10283C0083F83C20FB7B18461037BD4680BD80B426
:10284C0083B000AF786000BF0C37BD4680BC7047CA
:10285C0080B483B000AF786000BF0C37BD4680BC3D
:10286C00704780B483B000AF786000BF0C37BD46B2
:10287C0080BC704780B483B000AF786000BF0C3769
:10288C00BD4680BC7047000080B485B000AF786056
:10289C0039607B681B68FB607B682B4A934207D0CE
:1028AC007B68B3F1804F03D07B68284A934208D1F0
:1028BC00FB6823F07003FB603B685B68FA681343AA
:1028CC00FB607B68204A934207D07B68B3F1804F52
:1028DC0003D07B681D4A934208D1FB6823F44073F4
:1028EC00FB603B68DB68FA681343FB60FB6823F012
:1028FC0080023B685B691343FB607B68FA681A6073
:10290C003B689A687B68DA623B681A687B689A62F3
:10291C007B680D4A934203D13B681A697B681A6342
:10292C007B6801225A617B681B6903F00103002B51
:10293C0005D07B681B6923F001027B681A6100BF1C
:10294C001437BD4680BC7047002C01400004004089
:10295C0080B487B000AFF860B9607A60FB681B6A1E
:10296C007B61FB681B6A23F00102FB681A62FB683F
:10297C009B693B613B6923F0F0033B617B681B0166
:10298C003A6913433B617B6923F00A037B617A69E3
:10299C00BB6813437B61FB683A699A61FB687A698F
:1029AC001A6200BF1C37BD4680BC704780B487B02C
:1029BC0000AFF860B9607A60FB681B6A7B61FB68EA
:1029CC001B6A23F01002FB681A62FB689B693B616F
:1029DC003B6923F470433B617B681B033A691343E7
:1029EC003B617B6923F0A0037B61BB681B017A69A7
:1029FC0013437B61FB683A699A61FB687A691A62D6
:102A0C0000BF1C37BD4680BC704780B485B000AF9A
:102A1C00786039607B689B68FB60FB6823F070030F
:102A2C00FB603A68FB68134343F00703FB607B6869
:102A3C00FA689A6000BF1437BD4680BC704780B4FA
:102A4C0087B000AFF860B9607A603B60FB689B6848
:102A5C007B617B6923F47F437B613B681A027B6853
:102A6C001A43BB6813437A6913437B61FB687A6929
:102A7C009A6000BF1C37BD4680BC704780B485B0DF
:102A8C0000AF786039607B6893F83C30012B01D142
:102A9C00022341E07B68012283F83C207B68022200
:102AAC0083F83D207B681B685B68FB607B681B6858
:102ABC009B68BB60FB6823F07003FB603B681B6882
:102ACC00FA681343FB607B681B68FA685A607B6882
:102ADC001B68144A934209D07B681B68B3F1804F82
:102AEC0004D07B681B68104A93420CD1BB6823F05E
:102AFC008003BB603B685B68BA681343BB607B6850
:102B0C001B68BA689A607B68012283F83D207B6859
:102B1C00002283F83C20002318461437BD4680BCA5
:102B2C00704700BF002C01400004004080B483B00B
:102B3C0000AF786000BF0C37BD4680BC704780B4D6
:102B4C0083B000AF786000BF0C37BD4680BC7047C7
:102B5C0003460244934200D1704703F8011BF9E786
:102B6C0070B500260C4D0D4C641BA410A64209D167
:102B7C0000F01AF800260A4D0A4C641BA410A64259
:102B8C0005D170BD55F8043B98470136EEE755F872
:102B9C00043B98470136F2E7F02B0008F02B0008B5
:102BAC00F02B0008F42B0008F8B500BFF8BC08BCEB
:102BBC009E467047F8B500BFF8BC08BC9E467047EF
:102BCC0000000000000000000102030406070809D1
:102BDC0002030405060708090A0B0C0D0E0F101052
:042BEC0001020000E2
:042BF00031010008A7
:042BF4000D010008C7
:102BF80001000000010000000100000003000000C7
:102C080005000000020000000300000001000000B1
:0C2C180000127A00100000000100000013
:0400000508001535A5
:00000001FF
