:020000040800F2
:100000000028002091130008051000080D100008BA
:10001000151000081D100008251000080000000041
:100020000000000000000000000000002D1000088B
:1000300039100008000000004510000851100008A9
:10004000D9130008D9130008D9130008D9130008E0
:10005000D9130008D9130008D9130008D9130008D0
:10006000D9130008D9130008D9130008D9130008C0
:10007000D9130008D9130008D9130008D9130008B0
:10008000D9130008D9130008D9130008D9130008A0
:10009000D9130008D9130008D9130008D913000890
:1000A000D9130008D9130008D9130008D913000880
:1000B0005D100008D913000800000000D9130008E3
:1000C000D91300080000000000000000D913000848
:1000D00000000000D9130008D91300080000000038
:1000E000D9130008D9130008D91300080000000034
:1000F0000000000000000000000000000000000000
:0C01000000000000000000005FF808F1A3
:10010C0010B5054C237833B9044B13B10448AFF345
:10011C0000800123237010BD34000020000000007B
:10012C00102A000808B5034B1BB103490348AFF371
:10013C00008008BD0000000038000020102A0008D4
:10014C0080B582B000AF00237B605BE1884A7B689E
:10015C0013441B78022B00F0AB80022B00F34F8171
:10016C00002B02D0012B66D049E17B68DBB218462C
:10017C0000F00CFA0346002B00F036817C4A7B68B9
:10018C00134401221A707B68022B34D07B68022B3B
:10019C004DDC7B68002B03D07B68012B1ED046E026
:1001AC00744B1B680133734A1360734B01221A6042
:1001BC00704B1B68042B05DD6E4B01221A606F4BD4
:1001CC0001221A7000224FF440616D4801F003FCCB
:1001DC00684B1B68184600F00DFA2BE0664B1B6849
:1001EC000133654A1360644B1B68632B21DD624B42
:1001FC0001221A601DE05F4B1B68042B10D0042BEE
:10020C0013DC022B02D0032B05D00EE05A4B1B68DB
:10021C005C4A13600AE0584B1B685B4A136005E0AC
:10022C00554B1B68594A136000E000BF02E000BF49
:10023C00DAE000BFD8E07B68DBB2184600F0A6F924
:10024C000346002B0BD14A4A7B68134400221A70D8
:10025C007B68002B2AD1494B00221A7027E07B685F
:10026C00DBB2184600F0ACF90346002B00F0BE8060
:10027C003F4A7B68134402221A707B68022B11D010
:10028C007B68022B00F3B2807B68002B03D07B6869
:10029C00012B04D0AAE03E4B00221A6007E03D4B34
:1002AC0000221A603C4B00221A609FE000BF9DE0C8
:1002BC007B68DBB2184600F069F90346002B0CD1C1
:1002CC002B4A7B68134400221A707B68002B40F089
:1002DC008F802A4B00221A708AE07B68022B5DD03B
:1002EC007B68022B00F38B807B68002B03D07B6830
:1002FC00012B24D083E0214B01221A70244B1B6864
:10030C00013B234A1360224B1B68002B72DC204BF1
:10031C0032221A60174B1B680133164A1360164BB6
:10032C0001221A60134B1B68042B02DD114B0122B6
:10033C001A60104B1B68184600F05CF95AE0154B1C
:10034C001B68013B134A1360124B1B68002B53DCD8
:10035C00104B32221A60084B1B680133064A13609B
:10036C00054B1B68632B47DD034B01221A6043E0EE
:10037C00500000200000002004000020600000203D
:10038C00000801401000002014000020180000207C
:10039C0054000020580000205C0000201E4B1B68FD
:1003AC00013B1D4A13601C4B1B68002B27DC1A4BAE
:1003BC0032221A60194B1B68042B10D0042B1DDC45
:1003CC00022B02D0032B05D018E0154B1B68154AE5
:1003DC00136014E0124B1B68134A13600FE0104BB0
:1003EC001B68124A13600AE000BF08E000BF06E079
:1003FC0000BF04E000BF02E000BF00E000BF7B686C
:10040C0001337B607B68022B7FF7A0AE00BF00BF7F
:10041C000837BD4680BD00BF5C00002000000020F6
:10042C000400002010000020140000201800002000
:10043C0080B483B000AF0023FB7117E0FB79104A46
:10044C000121D154FB790F4A0121D154FB790E4A79
:10045C000121D154FB790D4A0021D154FB790C4A6E
:10046C00002122F81310FB790133FB71FB79022B6D
:10047C00E4D900BF00BF0C37BD4680BC704700BF3D
:10048C0064000020680000206C0000207000002038
:10049C007400002090B583B000AF0023FB7161E0C5
:1004AC00FA79FB793349895C334AD154FB79022BB5
:1004BC001AD0022B22DC002B02D0012B0AD01DE01B
:1004CC00FC7901212D4801F06FFA03461A46294B9D
:1004DC001A5513E0FC790221284801F065FA03460D
:1004EC001A46244B1A5509E0FC790421234801F0E3
:1004FC005BFA03461A461F4B1A5500BFFB791D4A7F
:10050C00D25CFB791C49CB5C9A4228D1FA79FB79F5
:10051C001849895C1A4AD154FB79194AD35C002BCF
:10052C0014D1FB79174A32F81330632B09D8FB79B5
:10053C00144A32F81320013291B2124A22F81310E5
:10054C000DE0FB79104A0121D15408E0FB790E4AE9
:10055C000021D154FB790B4A002122F81310FB79AE
:10056C000133FB71FB79022B9AD900BF00BF0C370A
:10057C00BD4690BD680000206C00002000080140C2
:10058C0064000020740000207000002080B483B050
:10059C0000AF0346FB71FB79022B01D9002307E066
:1005AC00FB79064AD35C002B0CBF01230023DBB282
:1005BC0018460C37BD4680BC704700BF6400002055
:1005CC0080B483B000AF0346FB71FB79022B01D9D9
:1005DC00002307E0FB79064AD35C012B0CBF0123F7
:1005EC000023DBB218460C37BD4680BC704700BFF9
:1005FC007000002080B582B000AF78607B68092B5A
:10060C007FD801A252F823F03D06000853060008DB
:10061C00690600087F06000895060008AB0600086E
:10062C00C1060008D7060008ED060008F906000808
:10063C0000227E21354801F0CEF901228021334879
:10064C0001F0C9F95DE000220C21304801F0C3F93A
:10065C000122F2212D4801F0BEF952E00022B62110
:10066C002A4801F0B8F901224821284801F0B3F9D1
:10067C0047E000229E21254801F0ADF901226021BE
:10068C00224801F0A8F93CE00022CC211F4801F0DF
:10069C00A2F9012232211D4801F09DF931E000221E
:1006AC00DA211A4801F097F901222421174801F0A8
:1006BC0092F926E00022FA21144801F08CF901226B
:1006CC000421124801F087F91BE000220E210F488B
:1006DC0001F081F90122F0210C4801F07CF910E0C5
:1006EC000022FE21094801F076F90AE00022DE2101
:1006FC00064801F070F901222021044801F06BF941
:10070C0000BF00BF0837BD4680BD00BF000C0140D4
:10071C0080B582B000AF78607B68092B00F29480C2
:10072C0001A252F823F000BF5D070008770700080C
:10073C0091070008AB070008C5070008DF07000891
:10074C00F9070008130800082D0800083B080008EA
:10075C0000224FF47C513E4801F03DF901224FF448
:10076C0080413B4801F037F96EE000224FF4C06144
:10077C00374801F030F901224FF4F241344801F0CE
:10078C002AF961E000224FF4B641314801F023F917
:10079C0001224FF410512E4801F01DF954E00022B3
:1007AC004FF49E412A4801F016F901224FF44051B2
:1007BC00274801F010F947E000224FF4CC412448BF
:1007CC0001F009F901224FF4C851214801F003F955
:1007DC003AE000224FF4DA411D4801F0FCF8012206
:1007EC004FF490511A4801F0F6F82DE000224FF426
:1007FC00FA41174801F0EFF801224FF40071144848
:10080C0001F0E9F820E000224FF4E061104801F01B
:10081C00E2F801224FF4F0410D4801F0DCF813E04E
:10082C0000224FF4FE410A4801F0D5F80CE00022FA
:10083C004FF4DE41064801F0CEF801224FF480510E
:10084C00034801F0C8F800BF00BF0837BD4680BDA3
:10085C00000C014080B400AF054B1B68054A1360C7
:10086C00054B1B68054A136000BFBD4680BC704732
:10087C00100000207C0000201800002080000020C8
:10088C0080B500AFA44B1B68002B09DCA34B1B6885
:10089C00013BA24A1360A24B1B68013BA04A1360A8
:1008AC00A04B1B68032B5BD0032B00F3FD80012BAB
:1008BC0003D0022B00F0A680F6E09B4B1B68002BAC
:1008CC0037DC9A4B1B68012B17D100224FF4806147
:1008DC00974801F080F801224FF40061944801F030
:1008EC007AF88E4B1B68934A82FB03129210DB172B
:1008FC00D31A1846FFF77EFE1BE000224FF400616E
:10090C008B4801F068F801224FF48061884801F0AF
:10091C0062F8824B1A68874B83FB02139910D3172A
:10092C00C91A0B469B000B445B00D11A0846FFF713
:10093C0061FE002210217E4801F04DF80122602159
:10094C007B4801F048F8754B1B68002B00F3B28014
:10095C00744B03221A60784B1B68704A1360A9E031
:10096C00714B1B68002B37DC704B1B68012B17D1AC
:10097C0000224FF480616E4801F02DF801224FF4F3
:10098C0000616B4801F027F8644B1B68694A82FBD5
:10099C0003129210DB17D31A1846FFF72BFE1BE03D
:1009AC0000224FF40061624801F015F801224FF467
:1009BC0080615F4801F00FF8584B1A685D4B83FB60
:1009CC0002139910D317C91A0B469B000B445B00FA
:1009DC00D11A0846FFF70EFE00224021544800F0C1
:1009EC00FAFF01223021524800F0F5FF4B4B1B68F7
:1009FC00002B61DC4B4B02221A60504B1B68474AA0
:100A0C00136059E0484B1B68002B37DC474B1B68C5
:100A1C00012B17D100224FF48061454800F0DBFF19
:100A2C0001224FF40061424800F0D5FF3B4B1B689C
:100A3C00404A82FB03129210DB17D31A1846FFF7B9
:100A4C00D9FD1BE000224FF40061394800F0C3FFD0
:100A5C0001224FF48061364800F0BDFF2F4B1A681D
:100A6C00344B83FB02139910D317C91A0B469B0006
:100A7C000B445B00D11A0846FFF7BCFD0022202175
:100A8C002B4800F0A8FF01225021294800F0A3FFB9
:100A9C00224B1B68002B11DC224B01221A60284BC5
:100AAC001B681E4A136009E001227021204800F0E7
:100ABC0092FF04E000BF02E000BF00E000BF214B4A
:100ACC001B68032B74D0032B00F31A81012B03D06A
:100ADC00022B00F0C18013E1134B1B68002B4FDC81
:100AEC00124B1B68012B2FD100224FF48051104860
:100AFC0000F071FF01224FF400510D4800F06BFF24
:100B0C00074B1B680B4A82FB03129210DB17D31A9C
:100B1C001846FFF7FDFD33E0240000207C00002088
:100B2C008000002008000020CC00002028000020BD
:100B3C00000801406766666618000020140000205B
:100B4C00100000200C00002000224FF400517348CC
:100B5C0000F041FF01224FF48051704800F03BFF40
:100B6C006F4B1A686F4B83FB02139910D317C91A7A
:100B7C000B469B000B445B00D11A0846FFF7C8FDDF
:100B8C0000228021654800F026FF01224FF44071BD
:100B9C00624800F020FF624B1B68002B00F3B7800B
:100BAC00614B03221A60614B1B685D4A1360AEE017
:100BBC005F4B1B68002B37DC5E4B1B68012B17D17E
:100BCC0000224FF48051554800F005FF01224FF4EC
:100BDC000051524800F0FFFE514B1B68514A82FBFA
:100BEC0003129210DB17D31A1846FFF791FD1BE086
:100BFC0000224FF40051494800F0EDFE01224FF461
:100C0C008051464800F0E7FE454B1A68454B83FB84
:100C1C0002139910D317C91A0B469B000B445B00A7
:100C2C00D11A0846FFF774FD00224FF400713B48BF
:100C3C0000F0D1FE01224FF4C071384800F0CBFE19
:100C4C00374B1B68002B64DC374B02221A603A4B83
:100C5C001B68334A13605CE0354B1B68002B37DC98
:100C6C00344B1B68012B17D100224FF480512B48B9
:100C7C0000F0B1FE01224FF40051284800F0ABFE09
:100C8C00274B1B68274A82FB03129210DB17D31ADF
:100C9C001846FFF73DFD1BE000224FF400511F48A2
:100CAC0000F099FE01224FF480511C4800F093FE95
:100CBC001B4B1A681B4B83FB02139910D317C91AD1
:100CCC000B469B000B445B00D11A0846FFF720FD36
:100CDC0000224FF48071114800F07DFE01224FF488
:100CEC0020710E4800F077FE0D4B1B68002B12DCB8
:100CFC000D4B01221A60114B1B68094A13600AE064
:100D0C0001224FF46071054800F065FE04E000BF5D
:100D1C0002E000BF00E000BF00BF80BD0008014042
:100D2C0080000020676666660C000020180000201A
:100D3C00CC0000202800002014000020100000200F
:100D4C0080B500AF00F044FB00F010F800F096F80E
:100D5C0000F048F8FFF76CFBFFF77CFD024801F050
:100D6C0099FA00BFFDE700BF8400002080B590B069
:100D7C0000AF07F1180328220021184601F016FED7
:100D8C003B1D00221A605A609A60DA601A610223D5
:100D9C00BB610123BB621023FB6200237B6307F161
:100DAC001803184600F048FE0346002B01D000F053
:100DBC00C7F80F237B600023BB600023FB6000237C
:100DCC003B6100237B613B1D0021184601F0B6F806
:100DDC000346002B01D000F0B3F800BF4037BD46EE
:100DEC0080BD000080B586B000AF07F1080300227B
:100DFC001A605A609A60DA603B4600221A605A60A8
:100E0C001D4B4FF080421A601B4B41F63F725A60EB
:100E1C00194B00229A60184B0922DA60164B0022FB
:100E2C001A61154B00229A61134801F0E3F903464D
:100E3C00002B01D000F084F84FF48053BB6007F115
:100E4C00080319460C4801F061FB0346002B01D046
:100E5C0000F076F800233B6000237B603B4619468C
:100E6C00054801F039FD0346002B01D000F068F86D
:100E7C0000BF1837BD4680BD8400002080B586B009
:100E8C0000AF07F1080300221A605A609A60DA601A
:100E9C00284B9B69274A43F004039361254B9B69BC
:100EAC0003F004037B607B68224B9B69214A43F06F
:100EBC00080393611F4B9B6903F008033B603B687D
:100ECC00012243F6F8711C4800F085FD012247F61B
:100EDC00FE711A4800F07FFD0723BB600023FB6006
:100EEC0001233B6107F108031946134800F0E0FBAE
:100EFC0043F6F873BB600123FB6000233B610223C4
:100F0C007B6107F1080319460B4800F0D1FB47F64B
:100F1C00FE73BB600123FB6000233B6102237B61FA
:100F2C0007F108031946054800F0C2FB00BF18374B
:100F3C00BD4680BD0010024000080140000C01407D
:100F4C0080B400AF72B600BF00BFFDE780B485B0BF
:100F5C0000AF154B9B69144A43F001039361124B8C
:100F6C009B6903F00103BB60BB680F4BDB690E4A46
:100F7C0043F08053D3610C4BDB6903F080537B60EF
:100F8C007B680A4B5B68FB60FB6823F0E063FB60EB
:100F9C00FB6843F08063FB60044AFB68536000BF4E
:100FAC001437BD4680BC7047001002400000014061
:100FBC0080B584B000AF78607B681B68B3F1804F5C
:100FCC0013D10C4BDB690B4A43F00103D361094B82
:100FDC00DB6903F00103FB60FB68002200211C208D
:100FEC0000F02FFB1C2000F048FB00BF1037BD4663
:100FFC0080BD00BF0010024080B400AF00BFFDE711
:10100C0080B400AF00BFFDE780B400AF00BFFDE7C8
:10101C0080B400AF00BFFDE780B400AF00BFFDE7B8
:10102C0080B400AF00BFBD4680BC704780B400AF39
:10103C0000BFBD4680BC704780B400AF00BFBD464A
:10104C0080BC704780B500AF00F008FA00BF80BDCF
:10105C0080B500AF024801F069F900BF80BD00BF48
:10106C008400002080B400AF00BFBD4680BC704738
:10107C0080B582B000AF78607B681B68B3F1804F9D
:10108C0040F07981AF4B1B680A3BAE4A1360AE4B04
:10109C001B680A3BAC4A1360AC4B1B680A3BAB4A5F
:1010AC001360FFF7F7F9FFF74BF8A94B1B68013BEF
:1010BC00032B00F2238101A252F823F0D91000086F
:1010CC00E9100008991100084B120008A14B1B787D
:1010DC00002B40F00C81FFF7D3FB08E101224FF409
:1010EC0058719D4800F077FC964B1B68002B07DC71
:1010FC001021994800F087FC8021974800F083FC70
:10110C00964B1B68964A82FB03129210DB17D31A7C
:10111C00944A1360914B1968914B83FB01239A10ED
:10112C00CB17D21A13469B0013445B00CA1A8E4B82
:10113C001A60864B1B68002B00F3DB808B4B1B6803
:10114C00012B11D100224FF48051834800F043FC55
:10115C0001224FF40051804800F03DFC814B1B688C
:10116C001846FFF7D5FAC4E000224FF400517A4834
:10117C0000F031FC01224FF48051774800F02BFC39
:10118C00794B1B681846FFF7C3FAB2E001224FF403
:10119C003471714800F01FFC6A4B1B68002B08DC93
:1011AC0020216D4800F02FFC4FF480716A4800F04C
:1011BC002AFC6A4B1B686A4A82FB03129210DB17EB
:1011CC00D31A684A1360654B1968654B83FB01237E
:1011DC009A10CB17D21A13469B0013445B00CA1A01
:1011EC00614B1A60594B1B68002B00F384805F4BDA
:1011FC001B68012B11D100224FF48051564800F08E
:10120C00EAFB01224FF40051534800F0E4FB554B2C
:10121C001B681846FFF77CFA6DE000224FF4005172
:10122C004D4800F0D8FB01224FF480514A4800F0A1
:10123C00D2FB4D4B1B681846FFF76AFA5BE00122A4
:10124C004FF4D871444800F0C6FB3E4B1B68002B92
:10125C0008DC4021404800F0D6FB4FF400713E48BA
:10126C0000F0D1FB3D4B1B683D4A82FB03129210F0
:10127C00DB17D31A3B4A1360384B1968384B83FB86
:10128C0001239A10CB17D21A13469B0013445B0010
:10129C00CA1A354B1A602D4B1B68002B2DDC334BB7
:1012AC001B68012B11D100224FF480512A4800F009
:1012BC0092FB01224FF40051274800F08CFB294B84
:1012CC001B681846FFF724FA17E000224FF4005170
:1012DC00214800F080FB01224FF480511E4800F0A1
:1012EC007AFB214B1B681846FFF712FA05E000BF8A
:1012FC0004E000BF02E000BF00E000BF114B1B6820
:10130C00002B07DC0F4B4FF4FA721A6008211248BD
:10131C0000F079FB0C4B1B68002B03DC0A4B4FF4E1
:10132C007A721A60094B1B68002B24DC074B4FF4B4
:10133C00FA721A600D4B1B68012B19D10B4B022250
:10134C001A6018E02000002024000020CC000020AF
:10135C000000002060000020000801400400002074
:10136C0067666666D0000020D400002028000020AC
:10137C00034B01221A6000BF0837BD4680BD00BF79
:10138C0028000020FFF76EFE0B480C490C4A002386
:10139C0002E0D458C4500433C4188C42F9D3094A1F
:1013AC00094C002301E013600432A242FBD301F08C
:1013BC0005FBFFF7C5FC704700000020340000203F
:1013CC00542A000834000020DC000020FEE7000056
:1013DC0080B500AF084B1B68074A43F0100313603D
:1013EC00032000F023F90F2000F008F8FFF7AEFD02
:1013FC000023184680BD00BF0020024080B582B09B
:10140C0000AF7860124B1A68124B1B7819464FF4D8
:10141C007A73B3FBF1F3B2FBF3F3184600F03BF92C
:10142C000346002B01D001230EE07B680F2B0AD85A
:10143C00002279684FF0FF3000F003F9064A7B6810
:10144C001360002300E0012318460837BD4680BD19
:10145C001C000020300000202C00002080B400AFC5
:10146C00054B1B781A46054B1B681344034A136043
:10147C0000BFBD4680BC704730000020D800002063
:10148C0080B400AF024B1B681846BD4680BC704749
:10149C00D800002080B485B000AF78607B6803F082
:1014AC000703FB600C4BDB68BB60BA684FF6FF03AD
:1014BC001340BB60FB681A02BB68134343F0BF6365
:1014CC0043F40033BB60044ABB68D36000BF1437DD
:1014DC00BD4680BC704700BF00ED00E080B400AF9B
:1014EC00044BDB681B0A03F007031846BD4680BC9F
:1014FC00704700BF00ED00E080B483B000AF03463E
:10150C00FB7197F90730002B0BDBFB7903F01F0203
:10151C00064997F907305B09012000FA02F241F8FD
:10152C00232000BF0C37BD4680BC704700E100E0B3
:10153C0080B483B000AF03463960FB7197F9073074
:10154C00002B0ADB3B68DAB20C4997F90730120121
:10155C00D2B20B4483F800230AE03B68DAB20849A4
:10156C00FB7903F00F03043B1201D2B20B441A7641
:10157C0000BF0C37BD4680BC704700BF00E100E0E7
:10158C0000ED00E080B489B000AFF860B9607A601B
:10159C00FB6803F00703FB61FB69C3F10703042B32
:1015AC0028BF0423BB61FB690433062B02D9FB69FA
:1015BC00033B00E000237B614FF0FF32BB6902FA72
:1015CC0003F3DA43BB681A407B699A404FF0FF3152
:1015DC007B6901FA03F3D9437B680B40134318462C
:1015EC002437BD4680BC704780B582B000AF7860B0
:1015FC007B68013BB3F1807F01D301230FE00A4AE2
:10160C007B68013B53600F214FF0FF30FFF790FFD9
:10161C00054B00229A60044B07221A6000231846DF
:10162C000837BD4680BD00BF10E000E080B582B039
:10163C0000AF78607868FFF72DFF00BF0837BD4614
:10164C0080BD80B586B000AF0346B9607A60FB738D
:10165C0000237B61FFF742FF78617A68B96878698B
:10166C00FFF790FF024697F90F3011461846FFF727
:10167C005FFF00BF1837BD4680BD80B582B000AF9C
:10168C000346FB7197F907301846FFF735FF00BF8B
:10169C000837BD4680BD80B582B000AF78607868F1
:1016AC00FFF7A2FF034618460837BD4680BD000071
:1016BC0080B48BB000AF7860396000237B6200236C
:1016CC003B6261E101227B6A02FA03F3FB613B6836
:1016DC001B68FA691340BB61BA69FB699A4240F016
:1016EC0050813B685B68974A93425ED0954A93421F
:1016FC0075D8954A934258D0934A93426FD8934ADF
:10170C00934252D0914A934269D8914A93424CD019
:10171C008F4A934263D88F4A934246D08D4A934264
:10172C005DD8122B2AD8122B59D801A252F823F0CB
:10173C00B717000891170008A3170008E517000851
:10174C00EB170008EB170008EB170008EB17000865
:10175C00EB170008EB170008EB170008EB17000855
:10176C00EB170008EB170008EB170008EB17000845
:10177C00EB17000899170008AD170008764A93423A
:10178C0013D02CE03B68DB683B6229E03B68DB68EC
:10179C0004333B6224E03B68DB6808333B621FE0A8
:1017AC003B68DB680C333B621AE03B689B68002BA0
:1017BC0002D104233B6213E03B689B68012B05D1EB
:1017CC0008233B627B68FA691A6109E008233B62D3
:1017DC007B68FA695A6103E000233B6200E000BFBA
:1017EC00BB69FF2B01D87B6801E07B6804337B610C
:1017FC00BB69FF2B02D87B6A9B0002E07B6A083B2B
:10180C009B003B617B691A680F213B6901FA03F36A
:10181C00DB431A40396A3B6901FA03F31A437B69CB
:10182C001A603B685B6803F08053002B00F0A980C2
:10183C004A4B9B69494A43F001039361474B9B69AF
:10184C0003F00103BB60BB68454A7B6A9B0802330B
:10185C0052F82330FB607B6A03F003039B000F22DA
:10186C0002FA03F3DB43FA681340FB607B683D4AE2
:10187C0093420DD07B683C4A934207D07B683B4A2D
:10188C00934201D1022304E0032302E0012300E090
:10189C0000237A6A02F0030292009340FA68134321
:1018AC00FB602F497B6A9B080233FA6841F82320BE
:1018BC003B685B6803F48013002B06D02C4B9A68B2
:1018CC002B49BB6913438B6006E0294B9A68BB69B3
:1018DC00DB43274913408B603B685B6803F40013C0
:1018EC00002B06D0224BDA682149BB691343CB602D
:1018FC0006E01F4BDA68BB69DB431D491340CB6024
:10190C003B685B6803F40033002B06D0184B5A6815
:10191C001749BB6913434B6006E0154B5A68BB690A
:10192C00DB43134913404B603B685B6803F4803323
:10193C00002B1FD00E4B1A680D49BB6913430B606B
:10194C001FE000BF00003210000031100000221018
:10195C0000002110000012100000111000100240B5
:10196C000000014000080140000C01400010014043
:10197C00000401400B4B1A68BB69DB430949134057
:10198C000B607B6A01337B623B681A687B6A22FAC4
:10199C0003F3002B7FF496AE00BF00BF2C37BD467F
:1019AC0080BC70470004014080B485B000AF786003
:1019BC000B467B807B689A687B881340002B02D097
:1019CC000123FB7301E00023FB73FB7B18461437E8
:1019DC00BD4680BC704780B483B000AF78600B46C6
:1019EC007B8013467B707B78002B03D07A887B68D6
:1019FC001A6103E07B881A047B681A6100BF0C37FC
:101A0C00BD4680BC704780B485B000AF78600B4693
:101A1C007B807B68DB68FB607A88FB6813401A0468
:101A2C00FB68D9437B880B401A437B681A6100BF63
:101A3C001437BD4680BC704780B586B000AF786067
:101A4C007B68002B01D1012372E27B681B6803F0D9
:101A5C000103002B00F08780924B5B6803F00C03B2
:101A6C00042B0CD08F4B5B6803F00C03082B12D1AA
:101A7C008C4B5B6803F48033B3F5803F0BD1894BFF
:101A8C001B6803F40033002B6CD07B685B68002B65
:101A9C0068D101234CE27B685B68B3F5803F06D1CB
:101AAC00804B1B687F4A43F4803313602EE07B68C5
:101ABC005B68002B0CD17B4B1B687A4A23F4803378
:101ACC001360784B1B68774A23F4802313601DE066
:101ADC007B685B68B3F5A02F0CD1724B1B68714A05
:101AEC0043F4802313606F4B1B686E4A43F48033BE
:101AFC0013600BE06B4B1B686A4A23F48033136052
:101B0C00684B1B68674A23F4802313607B685B680F
:101B1C00002B13D0FFF7B4FC386108E0FFF7B0FCE2
:101B2C0002463B69D31A642B01D9032300E25D4BB7
:101B3C001B6803F40033002BF0D014E0FFF7A0FC7B
:101B4C00386108E0FFF79CFC02463B69D31A642B12
:101B5C0001D90323ECE1534B1B6803F40033002B36
:101B6C00F0D100E000BF7B681B6803F00203002B80
:101B7C0063D04C4B5B6803F00C03002B0BD0494B30
:101B8C005B6803F00C03082B1CD1464B5B6803F419
:101B9C008033002B16D1434B1B6803F00203002B40
:101BAC0005D07B681B69012B01D00123C0E13D4BA3
:101BBC001B6823F0F8027B685B69DB00394913432F
:101BCC000B603AE07B681B69002B20D0364B01225E
:101BDC001A60FFF755FC386108E0FFF751FC02462C
:101BEC003B69D31A022B01D90323A1E12D4B1B68AE
:101BFC0003F00203002BF0D02A4B1B6823F0F802F1
:101C0C007B685B69DB00274913430B6015E0264BAF
:101C1C0000221A60FFF734FC386108E0FFF730FC53
:101C2C0002463B69D31A022B01D9032380E11D4BD9
:101C3C001B6803F00203002BF0D17B681B6803F0D8
:101C4C000803002B3AD07B689B69002B19D0174BEB
:101C5C0001221A60FFF714FC386108E0FFF710FC52
:101C6C0002463B69D31A022B01D9032360E10D4BC9
:101C7C005B6A03F00203002BF0D0012000F09CFA09
:101C8C001CE00A4B00221A60FFF7FAFB38610FE0E8
:101C9C00FFF7F6FB02463B69D31A022B08D9032344
:101CAC0046E100BF00100240000042428004424264
:101CBC00924B5B6A03F00203002BE9D17B681B6833
:101CCC0003F00403002B00F0A6800023FB758B4B64
:101CDC00DB6903F08053002B0DD1884BDB69874AFD
:101CEC0043F08053D361854BDB6903F08053BB60B9
:101CFC00BB680123FB75824B1B6803F48073002BBC
:101D0C0018D17F4B1B687E4A43F480731360FFF736
:101D1C00B7FB386108E0FFF7B3FB02463B69D31A07
:101D2C00642B01D9032303E1754B1B6803F4807307
:101D3C00002BF0D07B68DB68012B06D16F4B1B6A44
:101D4C006E4A43F0010313622DE07B68DB68002BC5
:101D5C000CD16A4B1B6A694A23F001031362674B6F
:101D6C001B6A664A23F0040313621CE07B68DB6881
:101D7C00052B0CD1614B1B6A604A43F004031362C0
:101D8C005E4B1B6A5D4A43F0010313620BE05B4B35
:101D9C001B6A5A4A23F001031362584B1B6A574AB9
:101DAC0023F0040313627B68DB68002B15D0FFF76C
:101DBC0067FB38610AE0FFF763FB02463B69D31A05
:101DCC0041F28832934201D90323B1E04B4B1B6A99
:101DDC0003F00203002BEED014E0FFF751FB386147
:101DEC000AE0FFF74DFB02463B69D31A41F28832F9
:101DFC00934201D903239BE0404B1B6A03F002037F
:101E0C00002BEED1FB7D012B05D13C4BDB693B4A12
:101E1C0023F08053D3617B68DB69002B00F0878053
:101E2C00364B5B6803F00C03082B61D07B68DB69D5
:101E3C00022B46D1334B00221A60FFF721FB38618D
:101E4C0008E0FFF71DFB02463B69D31A022B01D9B0
:101E5C0003236DE0294B1B6803F00073002BF0D1BA
:101E6C007B681B6AB3F5803F08D1244B5B6823F475
:101E7C0000327B689B68214913434B601F4B5B68A6
:101E8C0023F474127B68196A7B685B6A0B431B49E9
:101E9C0013434B601B4B01221A60FFF7F1FA3861B8
:101EAC0008E0FFF7EDFA02463B69D31A022B01D981
:101EBC0003233DE0114B1B6803F00073002BF0D0A3
:101ECC0035E0104B00221A60FFF7DAFA386108E0AF
:101EDC00FFF7D6FA02463B69D31A022B01D903232A
:101EEC0026E0064B1B6803F00073002BF0D11EE0BC
:101EFC007B68DB69012B07D1012319E0001002403C
:101F0C0000700040600042420B4B5B68FB60FB685A
:101F1C0003F480327B681B6A9A4206D1FB6803F497
:101F2C0070127B685B6A9A4201D0012300E00023A7
:101F3C0018461837BD4680BD0010024080B584B0ED
:101F4C0000AF786039607B68002B01D10123D0E0B1
:101F5C006A4B1B6803F007033A689A4210D9674B27
:101F6C001B6823F0070265493B6813430B60634B06
:101F7C001B6803F007033A689A4201D00123B8E0CA
:101F8C007B681B6803F00203002B20D07B681B6866
:101F9C0003F00403002B05D0594B5B68584A43F4FB
:101FAC00E06353607B681B6803F00803002B05D0CB
:101FBC00534B5B68524A43F460535360504B5B681D
:101FCC0023F0F0027B689B684D4913434B607B68A0
:101FDC001B6803F00103002B40D07B685B68012B6E
:101FEC0007D1474B1B6803F40033002B15D1012399
:101FFC007FE07B685B68022B07D1414B1B6803F0C9
:10200C000073002B09D1012373E03D4B1B6803F0D7
:10201C000203002B01D101236BE0394B5B6823F0E9
:10202C0003027B685B68364913434B60FFF728FA61
:10203C00F8600AE0FFF724FA0246FB68D31A41F273
:10204C008832934201D9032353E02D4B5B6803F094
:10205C000C027B685B689B009A42EBD1274B1B6898
:10206C0003F007033A689A4210D2244B1B6823F002
:10207C00070222493B6813430B60204B1B6803F09B
:10208C0007033A689A4201D0012332E07B681B684F
:10209C0003F00403002B08D0194B5B6823F4E062B7
:1020AC007B68DB68164913434B607B681B6803F045
:1020BC000803002B09D0124B5B6823F460527B6839
:1020CC001B69DB000E4913434B6000F021F80246FC
:1020DC000B4B5B681B0903F00F030A49CB5C22FA1C
:1020EC0003F3094A1360094B1B681846FFF786F97E
:1020FC00002318461037BD4680BD00BF00200240AB
:10210C0000100240282A00081C0000202C0000208F
:10211C0080B487B000AF0023FB600023BB600023BA
:10212C007B6100237B6000233B611E4B5B68FB6083
:10213C00FB6803F00C03042B02D0082B03D027E020
:10214C00194B3B6127E0FB689B0C03F00F03174A0C
:10215C00D35C7B60FB6803F48033002B10D0114BF5
:10216C005B685B0C03F00103114AD35CBB607B68BA
:10217C000D4A03FB02F2BB68B2FBF3F37B6104E094
:10218C007B680C4A02FB03F37B617B693B6102E0D9
:10219C00054B3B6100BF3B6918461C37BD4680BCF4
:1021AC00704700BF0010024000127A00382A000865
:1021BC00482A000800093D0080B485B000AF786063
:1021CC000A4B1B680A4AA2FB03235B0A7A6802FBD0
:1021DC0003F3FB6000BFFB685A1EFA60002BF9D1B9
:1021EC0000BF00BF1437BD4680BC70471C000020E8
:1021FC00D34D621080B582B000AF78607B68002B45
:10220C0001D1012341E07B6893F83D30DBB2002B18
:10221C0006D17B68002283F83C207868FEF7C8FE64
:10222C007B68022283F83D207B681A687B68043344
:10223C001946104600F056FA7B68012283F84620B6
:10224C007B68012283F83E207B68012283F83F20C3
:10225C007B68012283F840207B68012283F84120AF
:10226C007B68012283F842207B68012283F843209B
:10227C007B68012283F844207B68012283F8452087
:10228C007B68012283F83D20002318460837BD46A1
:10229C0080BD000080B485B000AF78607B6893F897
:1022AC003D30DBB2012B01D0012335E07B680222EB
:1022BC0083F83D207B681B68DA687B681B6842F0FA
:1022CC000102DA607B681B68164A934209D07B686E
:1022DC001B68B3F1804F04D07B681B68124A934291
:1022EC0011D17B681B689B6803F00703FB60FB68DC
:1022FC00062B10D07B681B681A687B681B6842F041
:10230C0001021A6007E07B681B681A687B681B680F
:10231C0042F001021A60002318461437BD4680BCF7
:10232C00704700BF002C01400004004080B584B011
:10233C0000AF78607B681B68DB68FB607B681B68A0
:10234C001B69BB60BB6803F00203002B20D0FB6849
:10235C0003F00203002B1BD07B681B686FF002029A
:10236C001A617B6801221A777B681B689B6903F0F2
:10237C000303002B03D0786800F098F905E0786827
:10238C0000F08BF9786800F09AF97B6800221A77D4
:10239C00BB6803F00403002B20D0FB6803F004039C
:1023AC00002B1BD07B681B686FF004021A617B68E2
:1023BC0002221A777B681B689B6903F44073002B1D
:1023CC0003D0786800F072F905E0786800F065F9E0
:1023DC00786800F074F97B6800221A77BB6803F008
:1023EC000803002B20D0FB6803F00803002B1BD044
:1023FC007B681B686FF008021A617B6804221A77ED
:10240C007B681B68DB6903F00303002B03D078683F
:10241C0000F04CF905E0786800F03FF9786800F0BE
:10242C004EF97B6800221A77BB6803F01003002B6F
:10243C0020D0FB6803F01003002B1BD07B681B68BB
:10244C006FF010021A617B6808221A777B681B6890
:10245C00DB6903F44073002B03D0786800F026F995
:10246C0005E0786800F019F9786800F028F97B68C5
:10247C0000221A77BB6803F00103002B0CD0FB6819
:10248C0003F00103002B07D07B681B686FF001027F
:10249C001A617868FEF7ECFDBB6803F08003002B33
:1024AC000CD0FB6803F08003002B07D07B681B6803
:1024BC006FF080021A61786800F06FFABB6803F065
:1024CC004003002B0CD0FB6803F04003002B07D01B
:1024DC007B681B686FF040021A61786800F0F8F8AE
:1024EC00BB6803F02003002B0CD0FB6803F0200327
:1024FC00002B07D07B681B686FF020021A6178688C
:10250C0000F042FA00BF1037BD4680BD80B584B0E4
:10251C0000AF786039600023FB737B6893F83C3024
:10252C00012B01D10223B4E07B68012283F83C200B
:10253C007B68022283F83D207B681B689B68BB602C
:10254C00BB6823F07703BB60BB6823F47F43BB609D
:10255C007B681B68BA689A603B681B68B3F5005FC0
:10256C003ED0B3F5005F00F28780B3F5805F00F0DA
:10257C008680B3F5805F7FD8702B1AD0702B7BD8F8
:10258C00602B50D0602B77D8502B3CD0502B73D86D
:10259C00402B58D0402B6FD8302B64D0302B6BD8BD
:1025AC00202B60D0202B67D8002B5CD0102B5AD05E
:1025BC0062E07B6818683B6899683B685A683B68BE
:1025CC00DB6800F06AF97B681B689B68BB60BB68C2
:1025DC0043F07703BB607B681B68BA689A604FE076
:1025EC007B6818683B6899683B685A683B68DB688D
:1025FC0000F053F97B681B689A687B681B6842F48F
:10260C0080429A603CE07B6818683B6859683B687C
:10261C00DB681A4600F0CAF87B681B685021184624
:10262C0000F021F92CE07B6818683B6859683B681E
:10263C00DB681A4600F0E8F87B681B6860211846D6
:10264C0000F011F91CE07B6818683B6859683B681E
:10265C00DB681A4600F0AAF87B681B684021184614
:10266C0000F001F90CE07B681A683B681B6819469E
:10267C00104600F0F8F803E00123FB7300E000BF04
:10268C007B68012283F83D207B68002283F83C2084
:10269C00FB7B18461037BD4680BD80B483B000AFBD
:1026AC00786000BF0C37BD4680BC704780B483B0E7
:1026BC0000AF786000BF0C37BD4680BC704780B45B
:1026CC0083B000AF786000BF0C37BD4680BC70474C
:1026DC0080B483B000AF786000BF0C37BD4680BCBF
:1026EC007047000080B485B000AF786039607B68BB
:1026FC001B68FB607B682B4A934207D07B68B3F165
:10270C00804F03D07B68284A934208D1FB6823F0A2
:10271C007003FB603B685B68FA681343FB607B6883
:10272C00204A934207D07B68B3F1804F03D07B687B
:10273C001D4A934208D1FB6823F44073FB603B684D
:10274C00DB68FA681343FB60FB6823F080023B688C
:10275C005B691343FB607B68FA681A603B689A6894
:10276C007B68DA623B681A687B689A627B680D4A00
:10277C00934203D13B681A697B681A637B68012218
:10278C005A617B681B6903F00103002B05D07B6841
:10279C001B6923F001027B681A6100BF1437BD4628
:1027AC0080BC7047002C01400004004080B487B00E
:1027BC0000AFF860B9607A60FB681B6A7B61FB68EC
:1027CC001B6A23F00102FB681A62FB689B693B6180
:1027DC003B6923F0F0033B617B681B013A691343AF
:1027EC003B617B6923F00A037B617A69BB68134305
:1027FC007B61FB683A699A61FB687A691A6200BF6F
:10280C001C37BD4680BC704780B487B000AFF86001
:10281C00B9607A60FB681B6A7B61FB681B6A23F0FA
:10282C001002FB681A62FB689B693B613B6923F4ED
:10283C0070433B617B681B033A6913433B617B69C3
:10284C0023F0A0037B61BB681B017A6913437B6196
:10285C00FB683A699A61FB687A691A6200BF1C3797
:10286C00BD4680BC704780B485B000AF78603960DD
:10287C007B689B68FB60FB6823F07003FB603A6825
:10288C00FB68134343F00703FB607B68FA689A60AC
:10289C0000BF1437BD4680BC704780B487B000AF12
:1028AC00F860B9607A603B60FB689B687B617B6910
:1028BC0023F47F437B613B681A027B681A43BB6835
:1028CC0013437A6913437B61FB687A699A6000BF92
:1028DC001C37BD4680BC704780B485B000AF7860B3
:1028EC0039607B6893F83C30012B01D1022341E025
:1028FC007B68012283F83C207B68022283F83D2010
:10290C007B681B685B68FB607B681B689B68BB60B3
:10291C00FB6823F07003FB603B681B68FA68134389
:10292C00FB607B681B68FA685A607B681B68144AFA
:10293C00934209D07B681B68B3F1804F04D07B684D
:10294C001B68104A93420CD1BB6823F08003BB6018
:10295C003B685B68BA681343BB607B681B68BA68EA
:10296C009A607B68012283F83D207B68002283F803
:10297C003C20002318461437BD4680BC704700BF6E
:10298C00002C01400004004080B483B000AF78609C
:10299C0000BF0C37BD4680BC704780B483B000AF1D
:1029AC00786000BF0C37BD4680BC704703460244BC
:1029BC00934200D1704703F8011BF9E770B500266C
:1029CC000C4D0D4C641BA410A64209D100F01AF852
:1029DC0000260A4D0A4C641BA410A64205D170BDFA
:1029EC0055F8043B98470136EEE755F8043B9847F9
:1029FC000136F2E74C2A00084C2A00084C2A000841
:102A0C00502A0008F8B500BFF8BC08BC9E467047B9
:0C2A1C00F8B500BFF8BC08BC9E4670472F
:102A28000000000000000000010203040607080976
:102A380002030405060708090A0B0C0D0E0F1010F7
:042A48000102000087
:042A4C00310100084C
:042A50000D0100086C
:102A5400010000000100000001000000030000006C
:102A640005000000020000000300000000127A00CC
:102A7400F4010000E8030000010000001000000061
:042A8400010000004D
:04000005080013914B
:00000001FF
